:100000000C94A2000C94B4000C94B4000C94B400B2
:100010000C94B4000C94B4000C94B4000C94B40090
:100020000C94B4000C94B4000C94B4000C94B40080
:100030000C94B4000C94B4000C94B4000C94B40070
:100040000C9463010C94B4000C94B4000C94B400B0
:100050000C94B4000C94B4000C94B4000C94B40050
:100060000C94B4000C94B40008000000BE92244923
:10007000123EABAAAA2ABECDCCCC4C3E00000080DA
:10008000BEABAAAAAA3E00000000BF000000803F4D
:100090000000000000084178D3BB4387D1133D190D
:1000A0000E3CC3BD4282AD2B3E68EC8276BED98F3A
:1000B000E1A93E4C80EFFFBE01C4FF7F3F0000007E
:1000C000000007634236B79BD8A71A39685618AEA6
:1000D000BAAB558C1D3CB7CC5763BD6DEDFD753E7D
:1000E000F6177231BF000000803F000000002400BE
:1000F00027002A0000000000250028002B00000037
:10010000000023002600290004040404040404045D
:1001100002020202020203030303030301020408B2
:100120001020408001020408102001020408102061
:1001300000000008000201000003040700000000A6
:100140000000000011241FBECFEFD8E0DEBFCDBFFE
:1001500021E0A0E0B1E001C01D92AB30B207E1F7B1
:100160000E94AD010C9483060C940000833081F052
:1001700028F4813099F08230A9F008958730A9F0F1
:100180008830C9F08430B1F4809180008F7D03C045
:10019000809180008F7780938000089584B58F7759
:1001A00084BD089584B58F7DFBCF8091B0008F779B
:1001B0008093B00008958091B0008F7DF9CF1F9398
:1001C000CF93DF93282F30E0F901E05DFE4F84915B
:1001D000F901E45EFE4FD491F901E85FFE4FC4914E
:1001E000CC23A9F0162F81110E94B600EC2FF0E06D
:1001F000EE0FFF1FEC50FF4FA591B4918FB7F8940D
:10020000EC91111108C0D095DE23DC938FBFDF91F4
:10021000CF911F910895DE2BF8CFCF93DF9390E01D
:10022000FC01E45EFE4F2491885F9E4FFC018491A7
:100230008823D1F090E0880F991FFC01E651FF4F11
:10024000A591B491FC01EC50FF4FC591D49161117F
:100250000EC09FB7F8948C91E22FE0958E238C937B
:100260002881E223E8839FBFDF91CF9108958FB764
:10027000F894EC91E22BEC938FBFF6CF3FB7F89454
:100280008091050190910601A0910701B0910801AC
:1002900026B5A89B05C02F3F19F00196A11DB11DE1
:1002A0003FBFBA2FA92F982F8827BC01CD01620F1D
:1002B000711D811D911D42E0660F771F881F991FD8
:1002C0004A95D1F708951F920F920FB60F921124FD
:1002D0002F933F938F939F93AF93BF93809101018F
:1002E00090910201A0910301B091040130910001AD
:1002F00023E0230F2D3758F50196A11DB11D209342
:1003000000018093010190930201A0930301B09337
:1003100004018091050190910601A0910701B0911F
:1003200008010196A11DB11D80930501909306015E
:10033000A0930701B0930801BF91AF919F918F9156
:100340003F912F910F900FBE0F901F90189526E8A8
:10035000230F0296A11DB11DD2CFCF93DF9300D002
:1003600000D000D0CDB7DEB7789484B5826084BD6C
:1003700084B5816084BD85B5826085BD85B58160A9
:1003800085BD80916E00816080936E001092810027
:1003900080918100826080938100809181008160E2
:1003A00080938100809180008160809380008091A3
:1003B000B10084608093B1008091B000816080932F
:1003C000B00080917A00846080937A0080917A00F6
:1003D000826080937A0080917A00816080937A00B5
:1003E00080917A00806880937A001092C10061E069
:1003F00089E00E940D0161E08CE00E940D0160E047
:1004000082E00E940D010FEF13E020E0222E20E099
:10041000322EE2E3F1E08491EEE1F1E0F491F98330
:10042000EAE0F1E0F491FD83FF2309F4D2C08111E9
:100430000E94B6002D81E22FF0E0EE0FFF1FE25088
:10044000FF4FA591B4918C913981382391E080E0E0
:1004500009F490E09093090180930A0180E480936D
:100460007C0080917A00806480937A0080917A0089
:1004700086FDFCCF6091780090917900F92FE62FEE
:10048000FA83E9838091090190910A0161E0019763
:1004900009F060E08CE00E94DF00B80129813A8118
:1004A000621B730B072E000C880B990B0E9405042E
:1004B00020E030E040E251E40E94E1046B017C0165
:1004C000E981FA81BF01FF0F880B990B0E94050497
:1004D0009B01AC01C701B6010E945B0369837A836B
:1004E0008B839C8325E030E03E832D83C12CD12C6F
:1004F000760129813A814B815C81C701B6010E9456
:10050000EF026B017C010E943E014B015C0182E322
:10051000482E512C612C712C0E943E0168197909DA
:100520008A099B09683E734081059105A8F331E073
:10053000431A51086108710888EE880E83E0981EFE
:10054000A11CB11C411451046104710429F72D81CF
:100550003E81215031093E832D83232B51F620E02B
:1005600030E040EA50E4C701B6010E945B0320E09E
:1005700030E040E251E40E945B030E94990424E1D0
:100580003EEA47E05FE30E94EE022EEA37E441EEE6
:100590005EEB0E945B0323E333E343E150E40E94FC
:1005A000EF029B01AC0160E070E080E291E40E9408
:1005B0004E050E94CD036536710574F061E089E057
:1005C0000E94DF002114310409F423CF0E940000AF
:1005D00020CF90E080E03ECF60E0F1CF5058BB27C5
:1005E000AA270E9406030C9457040E94490438F07D
:1005F0000E94500420F039F49F3F19F426F40C9423
:1006000046040EF4E095E7FB0C944004E92F0E94A9
:10061000680458F3BA17620773078407950720F038
:1006200079F4A6F50C948A040EF4E0950B2EBA2FFB
:10063000A02D0B01B90190010C01CA01A0011124E8
:10064000FF27591B99F0593F50F4503E68F11A1694
:10065000F040A22F232F342F4427585FF3CF469525
:1006600037952795A795F0405395C9F77EF41F1647
:10067000BA0B620B730B840BBAF09150A1F0FF0F11
:10068000BB1F661F771F881FC2F70EC0BA0F621FFD
:10069000731F841F48F4879577956795B795F795ED
:1006A0009E3F08F0B0CF9395880F08F09927EE0F82
:1006B0009795879508950E946F030C9457040E94A4
:1006C000500458F00E94490440F029F45F3F29F09B
:1006D0000C94400451110C948B040C9446040E9419
:1006E000680468F39923B1F3552391F3951B550BD7
:1006F000BB27AA2762177307840738F09F5F5F4FF5
:10070000220F331F441FAA1FA9F335D00E2E3AF033
:10071000E0E832D091505040E695001CCAF72BD04B
:10072000FE2F29D0660F771F881FBB1F261737079C
:100730004807AB07B0E809F0BB0B802DBF01FF27CE
:1007400093585F4F3AF09E3F510578F00C94400467
:100750000C948B045F3FE4F3983ED4F38695779531
:100760006795B795F7959F5FC9F7880F911D969587
:10077000879597F90895E1E0660F771F881FBB1FE3
:10078000621773078407BA0720F0621B730B840B90
:10079000BA0BEE1F88F7E09508950E94D403689481
:1007A000B1110C948B0408950E94700488F09F5737
:1007B00098F0B92F9927B751B0F0E1F0660F771F85
:1007C000881F991F1AF0BA95C9F714C0B13091F07B
:1007D0000E948A04B1E008950C948A04672F782F50
:1007E0008827B85F39F0B93FCCF386957795679540
:1007F000B395D9F73EF490958095709561957F4FAC
:100800008F4F9F4F0895E89409C097FB3EF4909551
:100810008095709561957F4F8F4F9F4F9923A9F0D9
:10082000F92F96E9BB279395F69587957795679568
:10083000B795F111F8CFFAF4BB0F11F460FF1BC0AC
:100840006F5F7F4F8F4F9F4F16C0882311F096E93F
:1008500011C0772321F09EE8872F762F05C06623ED
:1008600071F096E8862F70E060E02AF09A95660FA6
:10087000771F881FDAF7880F9695879597F908955F
:1008800097F99F6780E870E060E008959FEF80EC43
:10089000089500240A9416161706180609060895E6
:1008A00000240A9412161306140605060895092E4C
:1008B0000394000C11F4882352F0BB0F40F4BF2BBB
:1008C00011F460FF04C06F5F7F4F8F4F9F4F0895FB
:1008D00057FD9058440F551F59F05F3F71F04795F1
:1008E000880F97FB991F61F09F3F79F087950895D6
:1008F000121613061406551FF2CF4695F1DF08C0F5
:10090000161617061806991FF1CF86957105610511
:1009100008940895E894BB2766277727CB0197F9B9
:10092000089516F00C94D8050C94460468940C9421
:1009300040040E947004A8F39923C1F3AEF3DF933F
:10094000CF931F930F93FF92C92FDD2788232AF09F
:100950002197660F771F881FDAF720E030E040E824
:100960005FEB9FE3883920F0803E38F021968F7747
:100970000E94EF02E8E6F0E004C00E94EF02E5E921
:10098000F0E00E94E6058B01BE01EC01FB2E6F57E3
:1009900071097595771F880B990B0E94050428E152
:1009A00032E741E35FE30E94F404AF2D9801AE010A
:1009B000FF900F911F91CF91DF910E9406030C943D
:1009C00057040E94F4040C9457040E94490438F020
:1009D0000E94500420F0952311F00C9440040C94D4
:1009E000460411240C948B040E94680470F3959FB4
:1009F000C1F3950F50E0551F629FF001729FBB2716
:100A0000F00DB11D639FAA27F00DB11DAA1F649FB1
:100A10006627B00DA11D661F829F2227B00DA11D64
:100A2000621F739FB00DA11D621F839FA00D611DEA
:100A3000221F749F3327A00D611D231F849F600D0B
:100A4000211D822F762F6A2F11249F5750409AF034
:100A5000F1F088234AF0EE0FFF1FBB1F661F771FC0
:100A6000881F91505040A9F79E3F510580F00C948B
:100A700040040C948B045F3FE4F3983ED4F38695D6
:100A800077956795B795F795E7959F5FC1F7FE2B2B
:100A9000880F911D9695879597F90895FA01EE0FA5
:100AA000FF1F309621053105A1F16115710561F433
:100AB0008038BFE39B0749F168949038810561F065
:100AC0008038BFEF9B0741F099234AF5FF3FE105CE
:100AD0003105210519F1E8940894E795D901AA2375
:100AE00029F4AB2FBE2FF85FD0F310C0FF5F70F476
:100AF000A695E0F7F73950F019F0FF3A38F49F77F0
:100B00009F930DD00F9007FC9058089546F00C94D9
:100B1000460460E070E080E89FE308954FE79F7728
:100B20005F934F933F932F930E9499042F913F918E
:100B30004F915F910E94E1040C94A60529F416F0F0
:100B40000C9440040C948A040C9446040E94700493
:100B5000A8F39638A0F707F80F92E8942BE33AEA47
:100B600048EB5FE70E94F7040F920F920F924DB788
:100B70005EB70F920E944F06E2ECF0E00E94E6059D
:100B80004F915F91EF91FF91E595EE1FFF1F49F0A7
:100B9000FE57E0684427EE0F441FFA95E1F74195B0
:100BA000550B0E9419060F9007FE0C940D06089530
:100BB0009F3F31F0915020F4879577956795B795D1
:100BC000880F911D9695879597F90895DF93CF9398
:100BD0001F930F93FF92EF92DF927B018C01689439
:100BE00006C0DA2EEF010E94F404FE01E894A591FC
:100BF0002591359145915591A6F3EF010E94060389
:100C0000FE019701A801DA9469F7DF90EF90FF9059
:100C10000F911F91CF91DF9108959B01AC0160E08E
:100C200070E080E89FE30C945B030C9440040C9408
:100C3000D8050E947004D8F39923C9F3940F511D6D
:100C4000A3F39150504094F059F0882332F0660F8E
:100C5000771F881F91505040C1F79E3F51052CF7D8
:100C6000880F911D9695879597F908955F3FACF091
:100C7000983E9CF0BB27869577956795B79508F4C5
:100C8000B1609395C1F7BB0F58F711F460FFE8CF3F
:100C90006F5F7F4F8F4F9F4FE3CF0C948B04FA0110
:100CA000DC01AA0FBB1F9B01AC01BF5728F4222710
:100CB00033274427507820C0B75190F4AB2F00243D
:100CC000469537952795011CA395D2F3002071F026
:100CD000220F331F441FB395DAF30ED00C94EE02AB
:100CE00061307105A0E88A07B94630F49B01AC0178
:100CF0006627772788279078309621F020833183E4
:0A0D0000428353830895F894FFCF57
:00000001FF
